:020000040800F2
:100000000000022069050008B5020008B7020008D8
:10001000B9020008BB020008BD0200080000000091
:10002000000000000000000000000000BF02000807
:10003000C102000800000000C3020008C502000859
:10004000B9050008B9050008B9050008B905000898
:10005000B9050008B9050008B9050008B905000888
:10006000B9050008B9050008B9050008B905000878
:10007000B9050008B9050008B9050008B905000868
:10008000B9050008B9050008B9050008B905000858
:10009000B9050008B9050008B9050008B905000848
:1000A000B9050008B9050008B9050008B905000838
:1000B000B9050008B9050008B9050008B905000828
:1000C000B9050008B9050008B9050008B905000818
:1000D000B9050008B9050008B9050008B905000808
:1000E000B9050008B9050008B9050008B9050008F8
:1000F000B9050008B9050008B9050008B9050008E8
:10010000B9050008B9050008B9050008B9050008D7
:10011000B9050008B9050008B9050008B9050008C7
:10012000B9050008B9050008B9050008B9050008B7
:10013000B9050008B9050008B9050008B9050008A7
:10014000B9050008B9050008B9050008B905000897
:10015000B9050008B9050008B9050008B905000887
:10016000B9050008B9050008B9050008B905000877
:10017000B9050008B9050008B9050008000000002D
:08018000B9050008B9050008EB
:1001880010B5054C237833B9044B13B10448AFF3C9
:1001980000800123237010BD100000200000000023
:1001A8000406000808B5034B1BB103490348AFF325
:1001B800008008BD000000001400002004060008AC
:1001C80082B00190019A044B1A60034B1B68002B04
:1001D800FBD102B0704700BF2C00002080B582B070
:1001E800274C204600F052F96368264AA2FB0323F5
:1001F8005B09013BB3F1807F09D2234A5360234B4B
:10020800F02183F82310002393600723136005204F
:10021800FFF7D6FF0121084600F094F94FF48073E8
:10022800009303278DF8057002268DF804600024DA
:100238008DF8064001258DF807506946144800F0EE
:10024800CBF821464FF4800000F00CF92946042031
:1002580000F078F94FF4007300938DF805708DF86D
:1002680004608DF806408DF807506946094800F08B
:10027800B3F84FF04051204600F0FEF8FEE700BF0B
:10028800300000201F85EB5110E000E000ED00E099
:100298000000024000080240034B1B681BB1024AE1
:1002A8001368013B136070472C0000207047FEE77D
:1002B800FEE7FEE7FEE770477047704708B5FFF7AF
:1002C800EBFF08BD82B00023019300932A4A13680C
:1002D80043F480331360284B1B6803F40033009306
:1002E800019B01330193009B1BB9019BB3F5A04F00
:1002F800F1D1214B1B6813F4003F06D00123009372
:10030800009B012B04D002B0704700230093F7E74D
:10031800194B1A6C42F080521A6418490A6842F460
:1003280040420A609A689A609A6842F400429A6069
:100338009A6842F4A0529A60114A5A601A6842F0C8
:1003480080721A600C4B1B6813F0007FFAD00D4BBB
:1003580040F205721A60A3F580639A6822F00302DE
:100368009A609A6842F002029A60034B9B6803F015
:100378000C03082BF9D1C6E7003802400070004092
:1003880019544007003C024010B5104CD4F888308E
:1003980043F47003C4F888300D4B1A6842F0010228
:1003A8001A60002199601A6822F0847222F480325F
:1003B8001A60084A5A601A6822F480221A60D960C2
:1003C800FFF780FF4FF00063A36010BD00ED00E071
:1003D800003802401030002400230F2B41D8F0B41D
:1003E80025E082681640866082684D79A5402A43D8
:1003F800826045689FB20126BE4025EA0605456031
:1004080045688A79BA4092B22A434260C2689DB26E
:100418006E000325B54022EA0502C260C268CD79A4
:1004280005FA04F41443C46001330F2B17D80122D2
:100438009A400C68A243F7D105685C000322A240E9
:10044800D64325EA0202026002680D79A5402A43D4
:1004580002600A79013AD2B2012AD7D8C1E7F0BCC2
:1004680070477047034A936823F0EC6308431843C6
:100478009060704700380240034A936823F078433D
:1004880008431843906070470038024010B4294B65
:100498009B6803F00C03042B23D0082B24D013B142
:1004A800254B036001E0244B0360224CA368C3F38F
:1004B80003132249CB5CDAB20368D3404360A268D5
:1004C800C2F382228A5CD2B223FA02F28260A26864
:1004D800C2F342328A5CD2B2D340C3605DF8044BA7
:1004E8007047174B0360E0E7124B5A685B6803F0EC
:1004F8003F0312F4800F12D0114AB2FBF3F20D4BF6
:100508005B68C3F3881303FB02F30A4A5268C2F319
:10051800014201325200B3FBF2F30360C5E7064A19
:10052800B2FBF3F2034B5B68C3F3881303FB02F3DC
:10053800EBE700BF003802400024F4000000002070
:1005480040787D0121B1054A136B18431063704749
:10055800024A136B23EA0000106370470038024018
:10056800DFF834D0FFF710FF0C480D490D4A00237F
:1005780002E0D458C4500433C4188C42F9D30A4A50
:100588000A4C002301E013600432A242FBD300F0BE
:1005980011F8FFF723FE704700000220000000203A
:1005A8001000002024060008100000204000002051
:1005B800FEE7000070B50D4D0D4C641BA41000261D
:1005C800A64209D10B4D0C4C00F018F8641BA4107E
:1005D8000026A64205D170BD55F8043B9847013660
:1005E800EEE755F8043B98470136F2E71C06000889
:1005F8001C0600081C06000820060008F8B500BF05
:10060800F8BC08BC9E467047F8B500BFF8BC08BCEB
:040618009E46704743
:04061C00AD01000824
:040620008901000844
:100624000000000001020304010203040607080994
:040000050800056981
:00000001FF
